{
  "_format": "hh-sol-artifact-1",
  "contractName": "CallerStub",
  "sourceName": "contracts/CallerStub.sol",
  "abi": [
    {
      "anonymous": false,
      "inputs": [
        {
          "indexed": false,
          "internalType": "uint256",
          "name": "one",
          "type": "uint256"
        },
        {
          "indexed": false,
          "internalType": "string",
          "name": "two",
          "type": "string"
        }
      ],
      "name": "Call",
      "type": "event"
    },
    {
      "inputs": [
        {
          "internalType": "uint256",
          "name": "param1_",
          "type": "uint256"
        },
        {
          "internalType": "string",
          "name": "param2_",
          "type": "string"
        }
      ],
      "name": "call",
      "outputs": [
        {
          "internalType": "bytes",
          "name": "",
          "type": "bytes"
        }
      ],
      "stateMutability": "nonpayable",
      "type": "function"
    }
  ],
  "bytecode": "0x608060405234801561001057600080fd5b506102b2806100206000396000f3fe608060405234801561001057600080fd5b506004361061002b5760003560e01c80636c8ce6a414610030575b600080fd5b61004361003e366004610140565b610059565b60405161005091906101bc565b60405180910390f35b6060836001146100c9576040517f08c379a000000000000000000000000000000000000000000000000000000000815260206004820152600d60248201527f6675636b696e67206572726f7200000000000000000000000000000000000000604482015260640160405180910390fd5b7f2f384e5d8e9d8f9044d41941c7c4b1271cc867514b58bf62f81b6ba5c9a1dbac8484846040516100fc93929190610228565b60405180910390a15060408051808201909152600581527f6f6c6f6c6f00000000000000000000000000000000000000000000000000000060208201529392505050565b60008060006040848603121561015557600080fd5b83359250602084013567ffffffffffffffff8082111561017457600080fd5b818601915086601f83011261018857600080fd5b81358181111561019757600080fd5b8760208285010111156101a957600080fd5b6020830194508093505050509250925092565b600060208083528351808285015260005b818110156101e9578581018301518582016040015282016101cd565b5060006040828601015260407fffffffffffffffffffffffffffffffffffffffffffffffffffffffffffffffe0601f8301168501019250505092915050565b83815260406020820152816040820152818360608301376000818301606090810191909152601f9092017fffffffffffffffffffffffffffffffffffffffffffffffffffffffffffffffe01601019291505056fea2646970667358221220fc990350512745ceabb393408685b7a1ebd221cf89dff7e4adff5bb044541e4f64736f6c63430008120033",
  "linkReferences": {},
  "deployedLinkReferences": {}
}